:100000000C94CE020C9415030C9415030C94150358
:100010000C9415030C9415030C9415030C94150300
:100020000C9415030C9415030C9406210C94C22017
:100030000C94AA270C9415030C9415030C94150327
:100040000C9415030C9415030C9415030C941503D0
:100050000C9415030C9486270C9415030C9415032B
:100060000C9415030C9415030C9415030C941503B0
:100070000C9415030C9415030C9415030C941503A0
:100080000C9415030C9415030C9415030C94150390
:100090000C9415030C9415030C9415030C94150380
:1000A0000C9415030C9415030C9415030501090217
:1000B000A10185020901A1000509190129081500FE
:1000C0002501950875018102050109300931158165
:1000D000257F95027508810609381581257F9501D0
:1000E00075088106050C0A38021581257F95017572
:1000F000088106C0C005010980A101850319012AF4
:10010000B700150126B700950175108100C0050CD8
:100110000901A101850419012AA002150126A002E6
:10012000950175108100C005010906A1018505052D
:100130000719E029E71500250195087501810205D9
:1001400007190029EF1500250195F07501810205B9
:10015000081901290595057501910295017503910D
:1001600001C00660FF0961A1010962150026FF00B8
:100170009520750881020963150026FF00952075FA
:10018000089102C005010906A101050719E029E748
:1001900015002501950875018102950175088101F9
:1001A0000507190029FF150026FF0095067508812F
:1001B000000508190129059505750191029501753C
:1001C000039101C0000101010101010101010202CD
:1001D00002020202020202030303030303030304F5
:1001E00004040404040405050505050606060606C0
:1001F000070707070708080808090909090A0A0A7A
:100200000B0B0B0C0C0C0D0D0D0E0E0E0F0F0F101B
:1002100010111111121213131414151516161717A5
:10022000181819191A1A1B1B1C1D1D1E1E1F202011
:10023000212222232424252626272829292A2B2C5B
:100240002D2D2E2F30313232333435363738393A7E
:100250003B3C3D3E3F404142434445464748494A76
:100260004C4D4E4F50515354555658595A5B5D5E44
:100270005F616264656668696B6C6D6F70727375DF
:1002800077787A7B7D7E8082838587888A8C8E8F43
:1002900091939596989A9C9EA0A2A3A5A7A9ABAD71
:1002A000AFB1B3B5B7BABCBEC0C2C4C6C9CBCDCF5F
:1002B000D1D4D6D8DBDDDFE2E4E7E9EBEEF0F3F50D
:1002C000F8FAFDFFFFAA7F55402223252628292A78
:1002D0002C2D2F3032333536383A3B3D3E404243A9
:1002E0004547494A4C4E5051535557595A5C5E60E8
:1002F00062646668696B6D6F71737577797B7D7FFA
:1003000081838587898A8C8E90929496989A9C9EF8
:100310009FA1A3A5A7A8AAACAEAFB1B3B4B6B8B914
:10032000BBBCBEBFC1C2C3C5C6C7C9CACBCCCDCE7C
:10033000D0D1D2D2D3D4D5D6D7D7D8D9D9DADADB5F
:10034000DBDBDCDCDCDCDCDDDDDDDDDCDCDCDCDCEB
:10035000DBDBDBDADAD9D9D8D7D7D6D5D4D3D2D22A
:10036000D1D0CECDCCCBCAC9C7C6C5C3C2C1BFBE12
:10037000BCBBB9B8B6B4B3B1AFAEACAAA8A7A5A37D
:10038000A19F9E9C9A98969492908E8C8A8987853C
:1003900083817F7D7B79777573716F6D6B6968661B
:1003A0006462605E5C5A5957555351504E4C4A49ED
:1003B00047454342403E3D3B3A3836353332302F95
:1003C0002D2C2A2928262523222102260227020154
:1003D000514C005300290054005500560067005F3F
:1003E000006000610057002B005C005D005E0000B3
:1003F00000390059005A005B0000002A00620063C7
:10040000005800000001000100010001000100018E
:1004100000010001000100010001000100010001D4
:1004200000010001000100010001000000010001C5
:1004300000010001000000010001000100010000B6
:1004400000000000000000000000000000000000AC
:10045000000000000000000000000000000000009C
:1004600000000000007E0F00D4FFFFFFC700000067
:100470007800000000000000002A2B280000000087
:100480000000000000000000000000002900000043
:10049000002C1E3420212224342627252E362D37E9
:1004A00038271E1F202122232425263333362E37BA
:1004B000381F0405060708090A0B0C0D0E0F101152
:1004C00012131415161718191A1B1C1D2F3130235F
:1004D0002D350405060708090A0B0C0D0E0F101127
:1004E00012131415161718191A1B1C1D2F3130352D
:1004F0004C1E0F0500047F3F1F64321464321478D1
:100500003C1E1E140A0509025B00030100A0FA0943
:100510000400000103010100092111010001224032
:10052000000705810308000A090401000203000016
:100530000009211101000122220007058203200089
:100540000107050303200001090402000103000064
:100550000009211101000122B600070584032000D3
:100560000A120110010000000864699900010001ED
:1005700002000112036D006F006E007400650078C8
:10058000003200370000000E03490064006F006273
:100590000061006F000000040309040011241FBE65
:1005A000CFEFDAE0DEBFCDBF04B603FE27C08091F7
:1005B000A5029091A602A091A702B091A80287304F
:1005C000904BA740B04BD1F41092A5021092A60216
:1005D0001092A7021092A80214BE84B7877F84BF2E
:1005E0000FB6F894A89580916000886180936000B0
:1005F000109260000FBEE0E0F8E3099522E0A4E964
:10060000B1E001C01D92A53AB207E1F711E0A0E008
:10061000B1E0E4E2F3E502C005900D92A439B10720
:10062000D9F70E94DD210C9445290C940000E8EDD7
:10063000F0E080818E7F80831092E2001092DA00D9
:100640001092E100A0EEB0E08C9181608C938081EB
:100650008F77808319BCA7EDB0E08C918E7F8C934F
:1006600080818F7E808310926F0208952091E40034
:100670003091E50095E6A9012091EC00822F817070
:1006800020FF06C08091E80080FF06C080E008954A
:100690002091E80022FD1AC080919402882389F0FD
:1006A000853089F08091EB0085FD0FC02091E4003A
:1006B0003091E50042175307F9F29150E1F684E0DA
:1006C000089582E0089583E0089581E00895EF920F
:1006D000FF920F931F93CF937C018B010E943603EF
:1006E000C82F811117C08091E80085FD0BC0809153
:1006F000E8008E778093E8000E943603882399F300
:10070000C82F08C0F70181917F018093F10001504B
:10071000110949F78C2FCF911F910F91FF90EF9006
:1007200008958091960287FF13C08091E80082FFB0
:1007300006C08091E8008B778093E80004C0809128
:1007400094028111F2CF0895809194028823D9F305
:100750008091E80080FFF8CF8091E8008E77ECCFA1
:10076000982F9093E900242F762F50E0891731F0CD
:100770007091EC002091ED005091F00021FD07C038
:100780009F5F973071F78093E90081E00895309181
:10079000EB003E7F3093EB003091ED003D7F3093D6
:1007A000ED003091EB0031603093EB007093EC0082
:1007B0002093ED005093F0002091EE0027FDE0CF54
:1007C00080E00895CF92DF92EF92FF920F931F93F4
:1007D000CF93DF93C8EDD0E088818F7E8883E7EDEB
:1007E000F0E080818160808384E082BF81E080933B
:1007F0006F0288818E7F888302EE10E0F8011082FC
:100800001092DA0081EEC82ED12CF6011082888178
:100810008F77888388818068888388818F7D8883AB
:1008200019BC1092940210929502109293021092A9
:10083000920290EEE92EF12CF70180818B7F80836C
:1008400088818160888342E060E080E00E94B0039C
:10085000F60180818E7F8083F801808181608083B2
:10086000808188608083F70180818E7F808388818A
:1008700080618883DF91CF911F910F91FF90EF905E
:10088000DF90CF900895FC0180919C0290919D0291
:1008900086179707A0F06115710529F49091E8007B
:1008A0009E779093E80090E06115710551F49111E5
:1008B00008C08091E80082FF34C080E00895BC0148
:1008C000F2CF809194028823C1F18530C1F18091EB
:1008D000E80083FD30C08091E80082FDEACF80917E
:1008E000E80080FFE1CF8091F3002091F200382FE3
:1008F0006115710519F02830310558F091E0283064
:10090000310509F090E02091E8002E772093E8006F
:10091000CBCF81918093F100615071092F5F3F4FE0
:10092000E7CF80919402882341F0853041F0809197
:10093000E80083FFBECF81E0089582E0089583E060
:100940000895089580E008958091710208959C01B2
:100950004FB7F89480916B0290916C02A0916D0258
:10096000B0916E024FBF821B930B08952FB7F8947E
:1009700080916B0290916C02A0916D02B0916E0219
:100980002FBF089580913202811110923202089592
:100990008091310290913002892B90912F02892B06
:1009A00080939601909132029923A1F0892B809334
:1009B000960180911C01882341F180913D0287FFBF
:1009C00024C08EE1E8E9F1E090E0815000F591115A
:1009D0000E94C204E0914002F09141023097E1F0A0
:1009E00080911C01882359F080913D0287FF07C048
:1009F000809196018093970185E080939601028013
:100A0000F381E02D86E991E0099486E0DBCF219126
:100A10002223D9F29F5FD9CF089590911C01992389
:100A2000D1F090913D0297FF16C0E82FE695E6952C
:100A3000E695EE31E0F4F0E0EA56FE4F282F2770FD
:100A400081E090E001C0880F2A95EAF780959281B5
:100A5000892382830895E8E9F1E09191891303C025
:100A6000DF0111971C9291E0EE39F907B1F7089573
:100A700090911C019923C1F090913D0297FF14C001
:100A8000E82FE695E695E695EE31F8F4F0E0EA56C3
:100A9000FE4F877021E030E001C0220F8A95EAF70F
:100AA0008281822B82830895A8E9B1E0EFEF90E084
:100AB0002D91821751F0EF3F19F4211101C0E92F58
:100AC0009F5F9630A9F7EF3F09F408950E2E000CB2
:100AD000FF0BEA56FE4FE6CFE92FEE0FEE0F9E0F0B
:100AE000890F982F977086958695869525E0829F29
:100AF000F0011124E65EFD4F50E040E080E02191DE
:100B000030E0092E02C0369527950A94E2F721704D
:100B10003327042E01C0220F0A94EAF7822B4F5F7D
:100B20005F4F4530510559F70895E92FEE0FEE0F4D
:100B30009E0F890F982F977041E001C0440F9A953E
:100B4000EAF786958695869595E0899FF0011124B0
:100B5000E65EFD4F30E020E070E05191DF0111973B
:100B6000CB01022E02C0969587950A94E2F7817018
:100B700081958527842385278C932F5F3F4F2530D0
:100B8000310559F70895809119029091E801981361
:100B900001C008958F5F8770FACF882341F0809558
:100BA000909131028923809331020C94C8040895F6
:100BB000882339F090913102982B909331020C9454
:100BC000C80408952091DE013091DF01281739070C
:100BD00071F09093DF018093DE01E0914002F0918B
:100BE0004102309721F00084F185E02D09940895A9
:100BF0002091DC013091DD012817390771F09093C5
:100C0000DD018093DC01E0914002F09141023097D8
:100C100021F00680F781E02D09940895E0914002CB
:100C2000F0914102309721F00190F081E02D09947C
:100C300080E00895CF92DF92EF92FF92843030F5FA
:100C4000811125C0909180009F7D909380002E9807
:100C5000282F30E0AFEFBFEF0E94362923E030E0CD
:100C600040E050E00E941429C9012C3764E13607A6
:100C7000A0F469E070E00E94ED2770938B00609310
:100C80008A00FF90EF90DF90CF90089583E09091DD
:100C90008000906290938000DBCF2A50374D4F4FF9
:100CA0005F4F942F832F722F662725EF38E241E0A4
:100CB00050E00E94142969017A01CA01B9010E9419
:100CC000D1279B01AC01C701B6010E94D127672F34
:100CD000782F892F99276115710521E082079105E9
:100CE00061F66FEF7FEFC9CF282F220F220F220F5F
:100CF00090915D029770922B90935D02987F21E016
:100D000009F420E090915D0220FB90F990935D0240
:100D10000C941A06FA01811101C0FB01099480911B
:100D20006002982F9E7F29F4817082608093600218
:100D300008958635E8F381708465F8CFAF92BF924D
:100D4000DF92EF92FF920F931F93CF93DF93082FC1
:100D5000162FE901E42FF0E0EC53FE4F611110C0B3
:100D6000E4915E2F4E2F4983E8835A83DF91CF9120
:100D70001F910F91FF90EF90DF90BF90AF9008957B
:100D8000E62EF12C4491D42EE42FF0E026E0829F51
:100D9000C00111242FEF30E0B9010E94ED27802F10
:100DA00090E0880F991F55E5569FD001579FB00DD1
:100DB00011248A1B9B0B982F990F890F5901AE188C
:100DC000BF08AE9ED001AF9EB00DBE9EB00D1124E7
:100DD0005B2F189F80011124012F11275901A01AA0
:100DE000B10AAE9E8001AF9E100DBE9E100D112463
:100DF0005901A81AB108AE9CC001AF9C900DBE9CD1
:100E0000900D1124892F9927281B390B2E9FC00183
:100E10002F9F900D3E9F900D1124E92F6230710598
:100E2000A1F050F46115710509F49DCF6130710591
:100E300081F0EB2F512F97CF6430710569F080F06E
:100E40006630710509F48FCFF4CFE42F4B2F592F63
:100E50008ACFE42F412F87CFEB2F542F492F83CFF9
:100E60004B2F5D2DE12F7FCF0E94B6049C01909106
:100E7000510280915202982B21F030934E02209320
:100E80004D029091530280915402982B21F030939F
:100E90004B0220934A02E0914002F09141023097C8
:100EA00049F082E080934F020480F581E02D8FE4C9
:100EB00092E00994089590E080E00E94F80590E0A7
:100EC00080E00E94E2051092300210922F020E94F0
:100ED000C80486E0EFE4F2E0DF011D928A95E9F7AD
:100EE00010924C02109249021092E1010C943407C6
:100EF0006093A1027093A2028093A3029093A40234
:100F00000C945B070F931F936091A1027091A20252
:100F10008091A3029091A4028B019C01067011277D
:100F200022273327063011052105310529F4686091
:100F30001F910F910C947807677FFACF0F931F933F
:100F400041E050E060E070E004C0440F551F661FB0
:100F5000771F8A95D2F7CB01BA016095709580957D
:100F600090950091A1021091A2022091A3023091CC
:100F7000A40260237123822393231F910F910C9469
:100F8000780790912E028095892380932E02282F36
:100F9000277071F4282F082E000C330B92171306BC
:100FA00039F08595859585950E949E0710922E02B1
:100FB00008950F931F9341E050E060E070E004C09B
:100FC000440F551F661F771F8A95D2F78091A102A3
:100FD0009091A202A091A302B091A4028A019B0168
:100FE000082B192B2A2B3B2BC901B8011F910F91FC
:100FF0000C94780760933302709334028093350227
:10100000909336020C945B0740915102803F59F453
:101010008091520287FF0DC01092520241110BC005
:1010200010924C0208C0813F81F480915202181640
:101030009CF3442381F08091530290915402892BB8
:1010400009F05AC0109249020895823F49F447FFBF
:10105000F0CF10925102809152028111ECCFE0CF7B
:10106000833F19F41416ACF3E4CF90915302893FF7
:1010700029F41916F4F610925302DBCF8A3F19F4C3
:1010800097FFD7CFF8CF909154028B3F29F497FF69
:10109000D0CF10925402CDCF8C3F19F41916CCF357
:1010A000C8CF9CE0980F953090F4845F990B21E0B5
:1010B00030E0B90102C0660F771F8A95E2F7CB01D5
:1010C000809590915002892380935002B2CF8D3F3A
:1010D00031F48091E1018E7F8093E101AACF8E3FB0
:1010E00021F48091E1018D7FF7CF8F3F09F0A1CFEF
:1010F0008091E1018B7FF0CF0895882309F459C0D6
:10110000823871F40E940E0681FF53C089E30E9469
:1011100038050E94C80489E30E940D050C94C80498
:10112000833859F40E940E0680FF43C083E50E9475
:1011300038050E94C80483E5EFCF843859F40E9433
:101140000E0682FF36C087E40E9438050E94C8045C
:1011500087E4E2CF9CEF980F913AF0F290E2980F7B
:10116000983088F4877021E030E0A90102C0440F74
:10117000551F8A95E2F7CA01809590913102892323
:1011800080933102CBCF9BE5980F933020F490E011
:1011900080E00C94F80598E5980F973120F490E0E2
:1011A00080E00C94E205803F20F00E9404080C943B
:1011B000340708958091E10180FD16C081FD16C0BD
:1011C00082FD16C0809149028823A1F0883280F404
:1011D00028E0829FC001112468E270E00E9401288B
:1011E000862F672B39F0089582E0089584E00895F2
:1011F00088E0089581E008958091E10180FD14C0A8
:1012000081FD14C082FD16C080914C02882381F0BC
:10121000843180F422E3829FC001112464E170E0F4
:101220000E940128862F08958CE0089589E1089591
:1012300085E0089582E30895803F31F40E94FC0820
:101240008195809352020895813F19F40E94FC0811
:10125000F8CF823F31F40E94FC08819580935102BF
:101260000895833F19F40E94FC08F8CF893F29F4C0
:101270000E94DA088093530208958A3F21F40E9465
:10128000DA088195F7CF8B3F31F40E94DA08819517
:101290008093540208958C3F19F40E94DA08F8CF25
:1012A0009CE0980F953070F4845F990B21E030E05A
:1012B00001C0220F8A95EAF780915002822B809319
:1012C000500208958D3F31F48091E1018160809357
:1012D000E10108958E3F21F48091E1018260F7CF12
:1012E0008F3FB9F78091E1018460F1CFF894E82F46
:1012F000E295EF70F0E031A1282F2F7081E090E0AF
:1013000001C0880F2A95EAF7982F9095932391A30F
:1013100092A1892B82A37894089590913D0292FF27
:1013200006C0282F28712830F9F4877F846093FF46
:1013300006C0282F28712831F1F4877E846120911E
:101340003E0220FF06C0382F38713830D9F4877F2D
:10135000816021FF06C0282F28712831D1F4877EB3
:10136000816194FD877E0895282F24712430F9F639
:101370008B7F8860DCCF282F2471243101F78B7E8E
:101380008861DDCF382F3171313019F78E7F886059
:10139000E0CF282F2171213121F78E7E8861E1CFA6
:1013A000CF9384E090E00E949A28C82F81E290E0D9
:1013B0000E949A28982F8C2FCF9108950F931F93F6
:1013C000CF93DF93C42FD0E0CC0FDD1F2AE0629FC4
:1013D000C00DD11D11243CE3839FC00DD11D1124EC
:1013E000CE0186960E949A28082F10E0102F002721
:1013F000CE0187960E949A289801282BC901DF9177
:10140000CF911F910F910895462F843038F4763094
:1014100028F4653018F4672F0C94DE0990E080E022
:101420000895CF93DF930E94040AEC01823891055E
:10143000A9F1D8F58133910509F496C048F58932B0
:10144000910509F48AC08A9709F495C0C11521E570
:10145000D20708F0BCC0C11530E5D30708F014C1AD
:10146000C83ED10508F09CC0C03ED10560F5C83A21
:10147000D10508F087C0C53AD10508F0FDC0C130DC
:10148000D10509F12097F9F0C430D105E0F440C04E
:101490008533910509F45AC0C997C1F680913D0280
:1014A000837089F0C0EED0E00EC0833E910599F1C3
:1014B00070F4803E910501F1823E910539F68091EC
:1014C0003D0282FD21C0CE01DF91CF910895863E7D
:1014D000910561F1873E910571F1843E910509F016
:1014E000B5CF80913E0281FFEECF80913D02C7EEE5
:1014F000D0E084FD0DC0E7CF80913D0280FD12C198
:1015000090913E0290FFDFCFC3EED0E084FFDBCFAF
:10151000D0E0C0E0D8CF80913D0282FD06C190911D
:101520003E0290FDBFCF84FFCECFF2CF80913D022F
:1015300083FDDDCFC8CF80913D0283FDF9C090913E
:101540003E0291FFF0CFC4EED0E0BDCF80913D02CE
:1015500085FFB9CFC9E2D0E0B6CF80913D0285FFCB
:10156000B2CFC5E3D0E0AFCF80913D0286FFABCFD5
:10157000CAE2D0E0A8CF80913D0286FFA4CFC1E3AC
:10158000D0E0A1CFCF3BD10518F6C85AD0E0CC0FA0
:10159000DD1FC55BDE4F0990D881C02DD46493CF89
:1015A000C11540E2D40758F4C11581E0D80708F00E
:1015B0008ACFC03FD10508F4ABCFD06584CFC11529
:1015C00090E4D90708F4A4CFDF70D06A7CCFC115AE
:1015D00025E5D20700F5C11534E5D30708F08AC028
:1015E000C11543E5D40708F071C0C11582E5D807DD
:1015F00008F467C0CE018370992721E030E002C073
:10160000220F331F8A95E2F7C695C69580E2C89FE0
:10161000E001112452C0C11599E5D907A8F4C115FC
:1016200028E5D20708F06BC0C11536E5D30708F0EE
:101630006FCF8C2F0E948D09C82FD0E0DC2FCC27D4
:10164000CC27DF71D0623FCFC1154AE5D40708F43B
:101650005BC0CE0190568115904208F059CF8D2F76
:101660008F710E948D0990E0982F882788279F719D
:101670009C012C2BE901E6CFC55AD0E0C85BDE4FB8
:10168000C881D0E0D0641FCFCE01E4E09695879565
:10169000EA95E1F783702C2F26952695237040E27A
:1016A000249F90011124382B8C2F8370C1E0D0E04F
:1016B00002C0CC0FDD1F8A95E2F7C22BD32BDC686A
:1016C00002CFDC2FCC27C16FD06AFDCECE01837054
:1016D000992721E030E002C0220F331F8A95E2F7FC
:1016E000C695C69590E2C99FE0011124C22BD32B69
:1016F000DA68E9CEDC2FCC27C46FD06AE4CEDC2FC9
:10170000CC27C06FD06ADFCE8C2F8F700E948D09DE
:1017100034E0D695C7953A95E1F7CF709C2FEC0150
:10172000D069D1CEC9E3D0E0CECEC2EED0E0CBCEF0
:10173000C6EED0E0C8CEBF92CF92DF92EF92FF927A
:101740000F931F93CF93DF938C01C090A102D09091
:10175000A202E090A302F090A40280913302909143
:101760003402A0913502B0913602C82AD92AEA2A59
:10177000FB2ACFE1D0E0BC2ED701C6010C2E04C05D
:10178000B695A795979587950A94D2F780FD0EC0D8
:10179000219788F7B12C8B2DDF91CF911F910F915D
:1017A000FF90EF90DF90CF90BF900895B8018C2FFD
:1017B0000E94110A019761F3EECFCF93DF93EC0102
:1017C0000E949B0BBE01DF91CF910C94110A0E94E5
:1017D000DD0B292F2F7092959F7092509E3078F4D8
:1017E000E92FF0E0E95BF64D0C941528803F19F0E5
:1017F00020F4883E20F481E00895843FE1F380E006
:101800000895883EC0F3813FD1F7F5CF822F8695AA
:101810008695869508956F927F928F929F92AF9250
:10182000BF92CF92DF92EF92FF920F931F93CF93CD
:10183000DF9389ECC82E83E0D82E9CE6E92EF12CAC
:10184000E701EC9736011BC0F50185909490692D56
:10185000C8010E94AE28682DC80101960E94AE28DA
:1018600082E0A80EB11C0E5F1F4FC017D10761F7B1
:101870008AE0680E711C2A96CE15DF0529F08E01CC
:101880000A5011095301E0CF7E018CE3E80EF11CF0
:101890008CE3C80ED11C8CE5E81681E0F80681F6D1
:1018A000DF91CF911F910F91FF90EF90DF90CF903C
:1018B000BF90AF909F908F907F906F900895682F0A
:1018C00086E090E00C94AE28CF93DF93C6E1D1E0A0
:1018D00060E0CE010E94AE282196C11584E0D807B1
:1018E000B9F7DF91CF910895CF93DF9300D00F9296
:1018F000CDB7DEB790919402943011F589837B8344
:101900006A839093E9008FEF9091E800815095FDF4
:1019100006C095ED9A95F1F700008111F5CF809101
:10192000E80085FF0DC050E040E063E070E0CE01CC
:1019300001960E9467038091E8008E778093E8000B
:101940000F900F900F90DF91CF910895BC0184E02C
:101950000C94740CBC0183E00C94740C9C0184E026
:101960008093E9009FEF8091E800915085FD06C0CB
:1019700085ED8A95F1F700009111F5CF8091E8008F
:1019800085FF0CC050E040E066E070E0C9010E94B5
:1019900067038091E8008E778093E8000895CF93E5
:1019A000DF93EC0180911C018823B1F180913D020D
:1019B00087FF32C060E284E08093E9008FEF90916E
:1019C000E800815095FD06C095ED9A95F1F700006D
:1019D0008111F5CF8091E80085FF1BC080911C012B
:1019E00070E050E040E0811104C050E040E068E069
:1019F00070E0CE010E9467038091E8008E778093AB
:101A0000E80080E2FE01A2E7B2E001900D928A9523
:101A1000E1F7DF91CF91089568E081E0CDCF81E0DB
:101A20008093E00080E28093D8001092C9008FE19B
:101A30009EE40197F1F700C0000087E090EBDC0125
:101A40008093A5029093A602A093A702B093A80248
:101A500088E19CE00FB6F894A895809360000FBED3
:101A600090936000FFCFCF93C82F882309F4AEC0B6
:101A70008238C1F40E940E0681FDA8C089E30E944D
:101A800038050E94C8042FEF81EE94E02150804079
:101A90009040E1F700C0000089E30E940D05CF915E
:101AA0000C94C8048338A1F40E940E0680FD8EC0F9
:101AB00083E50E9438050E94C8042FEF81EE94E070
:101AC000215080409040E1F700C0000083E5E5CF61
:101AD0008438A1F40E940E0682FD78C087E40E943B
:101AE00038050E94C8042FEF81EE94E02150804019
:101AF0009040E1F700C0000087E4CFCF8CEF8C0F5F
:101B0000813A88F580911C01882301F180913D0282
:101B100087FF1CC0EC2FE695E695E695F0E0EA56C7
:101B2000FE4F828190E04C2F477021E030E002C0F0
:101B3000220F331F4A95E2F782239323892B79F0F2
:101B40008C2F0E940D050E94C80409C0E8E9F1E04D
:101B50008191C817A9F321E0EE39F207C9F78C2F5C
:101B60000E9438059CCF80E28C0F883068F4C770E3
:101B700021E030E001C0220FCA95EAF780913102DE
:101B8000822B809331028BCFEBE5EC0FE33040F4F6
:101B9000F0E0E85BFE4F808190E0CF910C94F80577
:101BA000E8E5EC0FE73150F4F0E0EE0FFF1FE55BE6
:101BB000FE4F80819181CF910C94E205C03F30F0BF
:101BC0008C2F0E941C09CF910C943407CF9108955B
:101BD0001F93CF93DF93182FD0E0C0E0893311F427
:101BE000C0E5D0E0812F0E94330D209731F4812F82
:101BF000DF91CF911F910C947D088FE99FE00197B1
:101C0000F1F700C000002197F0CF0F931F93CF93FF
:101C1000DF93C62FD42F022FFC0182818823A1F0ED
:101C20006093A0020E94B60490939F0280939E024C
:101C3000C77081E001C0880FCA95EAF7DF91CF91A4
:101C40001F910F910C94D8058091A002681335C0A4
:101C500080919E0290919F020E94A704883C91056A
:101C600060F510E21D0FCD17B9F080E28C0F8830BF
:101C700040F4C77081E001C0880FCA95EAF70E945E
:101C8000CD05183048F481E09D2F977001C0880F72
:101C90009A95EAF70E94D805802F0E94E80D183027
:101CA00098F4D77081E001C0880FDA95EAF7DF91E8
:101CB000CF911F910F910C94CD05C77081E001C0A9
:101CC000880FCA95EAF7F3CFDF91CF911F910F915B
:101CD00008958091600280FD0AC0ECEBF1E0118272
:101CE00010821282339651E0E83CF507C1F7219A41
:101CF00035B13D7F25B122604FB7F8948CEB91E070
:101D0000FC015191CF0168E025B9000000C057FFE8
:101D100035B9550F000000C000C000C035B900C083
:101D20006A9591F7F1E0883C9F0751F74FBF8FE527
:101D300094E00197F1F700C000000895EF92FF9240
:101D40001F93CF93DF93EC018CEBE82E81E0F82E0C
:101D500010E08C8197014091630260916202810FD3
:101D60000E949E06115C83E0E80EF11C1C3F89F77F
:101D70000E94690E9A818C8190FF08C08F5F8C83CE
:101D8000DF91CF911F91FF90EF9008958150F7CF91
:101D9000CF92DF92EF92FF920F931F93CF93DF9337
:101DA000FC018281DD24DA9480FD02C0DD24D3941D
:101DB000CCEBD1E010E000E0198218821A8294E0A6
:101DC000E92EF12CC12C8091B9018C0D8530CCF11C
:101DD0008370082E000C990B8017910791F4809165
:101DE00063028E9DA0018F9D500D1124559547953E
:101DF000559547959E0160916202809161020E9413
:101E00009E06CD0CF1E0EF1AF108E9F60F5F1F4FC7
:101E100023960430110581F60E94690E8091B90164
:101E200091E0D91214C0811110C083E08093B901F0
:101E3000DF91CF911F910F91FF90EF90DF90CF90A6
:101E4000089587FFC6CF8C5FC4CF8150EFCF90E05D
:101E5000019683709927EACF0F931F93CF93DF9357
:101E6000CCEBD1E0FE01118210821282339681E028
:101E7000E83CF807C1F710E000E08091BA01082EB5
:101E8000000C990B081719078CF180911001082E8E
:101E9000000C990B801791074CF19E014091630251
:101EA00060916202809161020E949E060F5F1F4F47
:101EB00023960430110509F70E94690E80910F01E5
:101EC0009091BA01980F9093BA0120911001280FB8
:101ED00020931001121614F493301CF08195809316
:101EE0000F01DF91CF911F910F91089519821882F0
:101EF0001A82DCCF8F929F92AF92BF92CF92DF92E5
:101F0000EF92FF920F931F93CF93DF93EC014C81DD
:101F1000042F10E09801D8010E9436299B01AC01E2
:101F20000E9401294B015C01E0E2F0E0E01BF10BB3
:101F3000A5E5B0E0AC019B010E9401296B017C0189
:101F40009F01DF010E9422289B01AC010E940C2905
:101F50009B01AC01280D391D4A1D5B1DC701B6014F
:101F60000E941429F22E822F90E039E23F15E0F111
:101F700043E0249F9001112435952795122F109549
:101F80009CEBC92E91E0D92E00E085E5E82EEF18F4
:101F9000802F8695C9F58E2D9601412F60916202A2
:101FA0000E949E060F5F53E0C50ED11C043081F7DE
:101FB0000E94690E9C8181E0992319F0903219F4F6
:101FC0008FEF8093110180911101890F8C83DF9134
:101FD000CF911F910F91FF90EF90DF90CF90BF9026
:101FE000AF909F908F90089525E530E0A901481BA0
:101FF000590BCA019A01220F331F280F391F37FFCF
:10200000BBCF2F5F3F4FB8CF8F2DC6CFEF92FF9240
:102010000F931F93CF93DF938C01CCEBD1E0F12C86
:10202000E12CF80194816091620280916102F2E0FA
:10203000EF16F104FCF49923F9F09E01409163023C
:102040000E949E062FEFE21AF20A239684E0E81619
:10205000F10439F70E94690EF801848190E001963D
:10206000817099278483DF91CF911F910F91FF9009
:10207000EF900895992309F39E0140E0E1CF9091FC
:10208000600290FF0CC0ECEBF1E08183608342833F
:10209000339691E0E83CF907C1F70C94690E089576
:1020A0000F931F93CF93DF9300D00F92CDB7DEB77E
:1020B0008C018091BB0181110AC09E012F5F3F4FAF
:1020C0004FEF6FEF0E949E068A818093BB01F8015B
:1020D0006481613069F08091BB0140E0662361F06A
:1020E00040E0623011F44091BB0180E060E004C048
:1020F0006091BB0140E080E00E943F10F8018481C4
:1021000090E0019663E070E00E94012884830F90C4
:102110000F900F90DF91CF911F910F910895CF9362
:10212000DF9300D00F92CDB7DEB79091600290FFA1
:102130000AC09E012F5F3F4F0E949E064B8169811E
:102140008A810E943F100F900F900F90DF91CF91E6
:102150000895CF93DF93EC01EC81F0E0E753FD4F5E
:102160004491E0E6F2E0628181810E948F108C81CF
:102170008F5F8C83DF91CF910895CF93DF93EC0134
:10218000E0E6F2E0438162818C810E948F108C81B5
:102190008F5F8C83DF91CF9108958F929F92AF9242
:1021A000BF92CF92DF92EF92FF920F931F93CF9344
:1021B000DF9309E711E0D0E0C0E0B12CCC24C39458
:1021C000D12C2DE3E22E22E0F22ED8018D918D014B
:1021D000F894E82FE295EF70F0E021A18F70A6014E
:1021E00002C0440F551F8A95E2F7CA01922F982B1F
:1021F00091A392A18095892382A3789400C096012F
:102200000C2E01C0220F0A94EAF7522F2095E7E323
:10221000F2E08EE7882E81E0982EA12C4191D40126
:102220003D914D01832F82958F7090E0DC01909657
:102230008C9190E03F7002C0959587953A95E2F7B2
:1022400080FD4CC0852F842B481739F0BF016150A9
:102250007109DB018C93AA24A394EE16FF06F1F614
:10226000F801319780810E947609C43019F0E0EAC4
:10227000EA95F1F7BA282196C530D10509F0A5CF26
:10228000BB2079F181E08093B8010E94B60490935D
:10229000B7018093B6018091B6019091B7010E9479
:1022A000A704069710F18091370280936502809110
:1022B0003802809366028091390280936702809190
:1022C0003A028093680280913B0280936902809178
:1022D0003C0280936A021092B80107C0822F8423C7
:1022E000B3CF8091B8018111D6CF8B2DDF91CF91E3
:1022F0001F910F91FF90EF90DF90CF90BF90AF9024
:102300009F908F9008954F925F926F927F928F92DD
:102310009F92AF92BF92CF92DF92EF92FF920F9374
:102320001F93CF93DF93FC016280448081E084831C
:10233000E9ECF2E07490E8E4F3E0E491C8ECD1E079
:102340003CEBE32E31E0F32E4CEDC42E41E0D42ED5
:1023500052E0A52EBB24B39488248A94912C552452
:102360005A94E7190E2F10E082E0861530F0809124
:1023700061028883809162028983411021C01B829F
:102380001A8297014A81698188810E949E0625965A
:1023900083E0E80EF11CCC16DD0631F7DF91CF911A
:1023A0001F910F91FF90EF90DF90CF90BF90AF9073
:1023B0009F908F907F906F905F904F900C94690EDC
:1023C0008B818823E9F081508B83859DC001112486
:1023D0006C8170E00E94ED27FB01FF27E753FD4F62
:1023E0008491E82FE719E59DC0011124B8010E94EE
:1023F000ED2780916302689FB00111247A83C1CFD9
:102400000E947D2820916302269521582A9DA001D3
:102410002B9D500D1124452F5527841795070CF03F
:10242000B0CF82E0861588F40E947D28B4010E9416
:10243000012888830E947D28209162022695622FC0
:1024400070E00E940128280F29831A82809163027C
:10245000893C20F088EC8C838B8393CF8431D8F730
:1024600084E1F9CF90E080E00E94A82821E08B3E33
:102470009E4F09F020E0822F08956BEE7EEF90E0F2
:1024800080E00E94CC2860E082E090E00E94AE28CC
:1024900060E083E090E00E94AE2810923302109238
:1024A0003402109235021092360260E084E090E02F
:1024B0000E94AE2860E081E290E00E94AE2860E0D9
:1024C00085E090E00E94AE2860E086E090E00E9407
:1024D000AE286FEF87E090E00E94AE2840E050E029
:1024E000BA0188E090E00E94C02860E08DE090E0B2
:1024F0000E94AE2840E050E0BA0188E190E00E94DE
:10250000C02860E087E190E00E94AE2840E050E003
:10251000BA018CE190E00E94C02860E080E290E087
:102520000E94AE2840E050E0BA0188E190E00E94AD
:10253000C02840E050E0BA018FE090E00E94C0283F
:1025400040E050E0BA0183E190E00C94C0280E9482
:102550003212811102C00E943D1286E090E00E947A
:102560009A2880935D02803220F087708861809382
:102570005D0290915D02892F817090FF04C0892FC8
:102580008695869586950C941A06CF92DF92EF92E7
:10259000FF926B017C010E948F06B701A60188E0C3
:1025A00090E0FF90EF90DF90CF900C94C0287F9246
:1025B0008F929F92AF92BF92CF92DF92EF92FF9253
:1025C0000F931F93CF93DF9300D00F92CDB7DEB759
:1025D000182FD62E042FC22E9091600290FF29C092
:1025E000E92FE695AE2FB0E0A35EBE4F8C918093AD
:1025F0005E029E7F923071F59E012F5F3F4F812FCB
:102600000E949E064B8169818A810E943F1010932F
:102610006102D092620200936302CC2051F060917B
:1026200060027091610280916202909163020E9447
:10263000C5120F900F900F90DF91CF911F910F91C6
:10264000FF90EF90DF90CF90BF90AF909F908F90D2
:102650007F900895823019F400916302D8CF8630BC
:1026600019F410916102D3CF8930D9F3893179F609
:10267000E9512E2F2170722EE695F0E0EC53FD4FBC
:102680008590949099243CEBE32E31E0F32EB12C0D
:10269000A12CC5019695879596958795711013C0C5
:1026A000810F9701402F6D2D0E949E06A80CB91C2A
:1026B00083E0E80EF11C28ECE21621E0F20649F76F
:1026C0000E94690EA4CF212F281B822FEACFE0E6BB
:1026D000F2E0438128E0421B08F440E021E06281FF
:1026E00081810C94D712E0E6F2E0438128E0420FAA
:1026F00008F44FEF21E0628181810C94D712E0E66B
:10270000F2E0628128E0621B08F460E021E043818E
:1027100081810C94D712E0E6F2E0628128E0620F3A
:1027200008F46FEF21E0438181810C94D712E0E639
:10273000F2E0818121E04381628188500C94D712BC
:10274000E0E6F2E0818121E043816281885F0C94C0
:10275000D71280916402882319F08150809364021B
:1027600060916002709161028091620290916302B7
:102770000C94C51280916402833018F48F5F8093AB
:102780006402609160027091610280916202909196
:1027900063020C94C512E0E6F2E083E080831182CC
:1027A0008FEF828383831482608171818281938120
:1027B0000C94C5121092310280911C01E8E9F1E0FD
:1027C000882359F080913D0287FF07C08EE1DF0129
:1027D0001D928A95E9F70C945B0786E0F8CF1F936A
:1027E000CF93DF93CDB7DEB7AA970FB6F894DEBFCD
:1027F0000FBECDBF86E992E02091F100DC012D9360
:10280000CD01B2E08E399B07B9F7809197028330F2
:1028100009F471C0B8F4813009F448C0823009F479
:10282000B2C08091E80083FF3AC1809196029091F6
:1028300097029A3008F033C1E92FF0E0EB5AF64DD9
:102840000C9415288A3009F48DC08B3009F470C0BF
:10285000893039F780919602813219F780919A0276
:1028600090919B02009711F00297D9F68091E800B1
:10287000877F8093E8008091E80082FF37C09091C5
:10288000F3008091F200029729F48091F1008B7F90
:10289000813021F48091F100809371028091E800F1
:1028A0008B778093E8000E949103BBCF80919602C2
:1028B000813A09F0B6CF8091E800877F8093E800E5
:1028C00080919A0290919B02892B61F460E282E7E9
:1028D00092E070E00E9443048091E8008B7780933F
:1028E000E8009FCF60E090E080E0F3CF8091940219
:1028F0008111C1CF96CF80919602813A09F091CF94
:1029000080919A0290919B02892B09F08ACF809145
:10291000E800877F8093E8008091E80080FFFCCF8B
:1029200080911C018093F1008091E8008E77B9CFEF
:1029300080919602813209F074CF80919A02909131
:102940009B02892B09F06DCF8091E800877F8093EF
:10295000E8000E9491038091980280931C010E94DC
:10296000DA135FCF80919602813209F05ACF8091BD
:10297000E800877F8093E8000E949103809199028C
:10298000809370024ECF80919602813A09F049CF30
:102990008091E800877F8093E8008091E80080FFC5
:1029A000FCCF80917002BECF803899F0823809F058
:1029B00076C080919A028F70873008F070C0809343
:1029C000E9008091EB0085FB882780F91092E900EF
:1029D00006C0809192029091930291118260909131
:1029E000E800977F9093E8008093F1001092F10047
:1029F0008091E8008E77B5C1882309F4A2C18230A6
:102A000009F04DC0809198028111A6C180919A026F
:102A10008F702FEF280F263008F041C08093E90017
:102A20002091EB0020FF98C1933031F48091EB00AE
:102A300080628093EB0090C19091EB009061909345
:102A4000EB0021E030E001C0220F8A95EAF72093E5
:102A5000EA001092EA008091EB008860EACF8111D1
:102A60001EC0109198021F778091E3008078812B1F
:102A70008093E3008091E800877F8093E8000E94C4
:102A800091038091E80080FFFCCF8091E300806893
:102A90008093E30082E0111183E08093940280919F
:102AA000E80083FF0AC08091E800877F8093E800F8
:102AB0008091EB0080628093EB00AA960FB6F894A9
:102AC000DEBF0FBECDBFDF91CF911F91089580581B
:102AD000823028F720919802309199022C3DE3E052
:102AE0003E07A1F583E08A838AE289834FB7F89491
:102AF000DE01139620E03EE051E2E32FF0E0509338
:102B00005700E49120FF03C0E295EF703F5FEF7044
:102B10008E2F90E0EA30C0F0C7968D939D932F5F83
:102B2000243159F74FBF8091E800877F8093E800F8
:102B30006AE270E0CE0101960E9443048091E800B1
:102B40008B778093E800ABCFC096E7CF80919A0255
:102B500090919B02432F55274330510509F44AC0F9
:102B600078F54130510509F47AC08BE590E0E6E054
:102B7000F5E04230510509F092CF2091E800277F1F
:102B80002093E80020919C0230919D0282179307C8
:102B900008F49C0140E02115310509F065C04111A0
:102BA00063C08091E80082FDC9CF809194028823A0
:102BB00029F2853019F28091E80083FFF2CFBECF71
:102BC0004132510509F43CC04232510509F067CF4A
:102BD0008330910508F063CFFC01EE0FFF1FE9572A
:102BE000FE4F0190F081E02D8C579E4FDC018C91BF
:102BF00090E01AC0332721303105D1F0211531057D
:102C000061F02230310509F04ACFE3E7F5E0E491C5
:102C10008E2F90E0E3E7F5E007C0E7E9F5E0E49107
:102C20008E2F90E0E7E9F5E0009709F438CFA5CFC3
:102C3000E7E8F5E0E4918E2F90E0E7E8F5E0F4CFE7
:102C40008330910508F02BCF880F991FFC01E357C3
:102C5000FE4F0190F081E02D89E090E08ECF82E17F
:102C600090E0E1E6F5E089CF80919402882309F4B1
:102C700065CF853009F462CF8091E80083FD5ECF97
:102C80008091E80082FD8DCF8091E80080FF83CFA6
:102C90009091F3008091F2002115310519F08830F0
:102CA000910550F041E0089709F040E08091E8007C
:102CB0008E778093E8006FCF44914093F100319676
:102CC000215031090196E8CF803809F0E8CE809193
:102CD000E800877F8093E800809195028093F1005F
:102CE00087CE8111DCCE10919802123008F0D7CE39
:102CF0008091E800877F8093E800109395020E94FE
:102D00009103112311F084E005C08091E30087FD59
:102D1000FACF81E08093940242E061EC81E00E946E
:102D2000B00342E261EC84E00E94B00342E261EC55
:102D300082E00E94B00342E260EC83E00E94B003B4
:102D4000AECE80919802813009F0A9CE81E0933017
:102D500009F080E0809393021092E9008091E800EE
:102D6000877F8093E8000E94910399CE9091600242
:102D700090FF3DC09170811129C0926090936002D4
:102D8000662351F06091600270916102809162024D
:102D9000909163020E94C51260916002669570E096
:102DA0004BE050E084E091E00E948D28892BA9F04F
:102DB00010925F0281E08093460220E0409163021E
:102DC00060916202809161020C94D7128B3210F0F4
:102DD0009465D4CF880F982BD1CF81E080935F0288
:102DE0000E94B6049093440280934302E3CF089577
:102DF000809160028695815009F48AE261E00C942A
:102E0000B6168091600286958F5F8B3208F081E064
:102E100061E00C94B6169091600290FF07C0969501
:102E2000981720F0961710F40C94011761E00C9499
:102E3000B6163F924F925F926F927F928F929F92BF
:102E4000AF92BF92CF92DF92EF92FF920F931F93B8
:102E5000CF93DF9300D000D00F92CDB7DEB78C01B7
:102E6000FC0183819481892B31F0808191818923B8
:102E70008F3F09F0CDC60F900F900F900F900F90DD
:102E8000DF91CF911F910F91FF90EF90DF90CF9046
:102E9000BF90AF909F908F907F906F905F904F907A
:102EA0003F9008950E949B0BF82E682F89819A818C
:102EB0000E94950569817A818F2D0E94040A7C0108
:102EC000F8019281992309F478C6970122513F4570
:102ED0002031310508F0E8C58FEF93E00E949A2871
:102EE000FEEEEF0E56E1852E99249394882381F10E
:102EF00080912E02877009F4BECFF8018281882369
:102F000009F4B9CF82E00F900F900F900F900F90BF
:102F1000DF91CF911F910F91FF90EF90DF90CF90B5
:102F2000BF90AF909F908F907F906F905F904F90E9
:102F30003F900C94C107811424E09206C9F2C401A9
:102F40000E949A28811101C0EA943FEF831A930AE4
:102F5000E110F1CF1C821B82442443944AE0342EBA
:102F600074018FEFE81AF80AC4010E949A28898335
:102F70001A82882309F4BCCF9FEF980F933000F595
:102F80008A83498292E0890E911CC7010E949A2887
:102F90008B83882309F4ACCFFE0131967F01F701C2
:102FA00020812223E9F2213009F049C091818281F8
:102FB000913041F4F2E0EF0EF11C0E94E80D09C0DF
:102FC0004701EACF923049F422E0E20EF11C0E9460
:102FD000330D3FEFE31AF30AE2CF933031F432E0DE
:102FE000E30EF11C0E947D08F4CF943021F08FEFA6
:102FF000E81AF80AEECF92E0E90EF11C30E020E08A
:10300000B7016F5F7F4FF70141818053990B8A3081
:10301000910550F021503109E0F28FE99FE00197CE
:10302000F1F700C00000F6CF329EF001339EF00DA4
:1030300011249C012E0F3F1F842F7B01E1CFE22F33
:10304000F0E0EF58FB4F5490822F86958695869539
:1030500090E0FC01EF59FB4F64902770712C022E19
:1030600002C0759467940A94E2F7E1E06E22772437
:10307000FC01EF5AFB4FA490B12C022E02C0B59474
:10308000A7940A94E2F7F1E0AF22BB24FC01EF5BC6
:10309000FB4FC490D12C02C0D594C7942A95E2F777
:1030A00021E0C222DD246114710419F081EE0E9436
:1030B000330DA114B10419F086EE0E94330D852D55
:1030C0000E94E80DAB2819F086EE0E947D08672863
:1030D00019F081EE0E947D08CD2809F47ACF8CE2A8
:1030E0006CCF81E00E94D9070E94820701CF81E066
:1030F0000E949E07F9CF82E0F5CF82E0F9CF3FEB47
:10310000E3163CE5F30609F44BC0A0F1E0ECEE1643
:10311000ECE5FE0609F0E9C490915D02892F8695E1
:10312000869586958F5F8F719770843008F059C0AF
:10313000880F880F880F892B80935D0280915D0234
:1031400010C083E00E94740680915D020E945F0CB3
:10315000CFCE80915D02982F987FE9F188508093BF
:103160005D02887F91E009F490E080915D0290FB20
:1031700080F913C080915D02982F9695969596954B
:10318000933040F49F5F990F990F990F8770892BA7
:1031900080935D0280915D02816080935D0219C021
:1031A00080915D0280FF09C08E7F80935D020E9446
:1031B0005F0C80E00E941A069BCE80FD99CE816054
:1031C00080935D02813019F489E080935D028091E3
:1031D0005D020E945F0C80915D02869586958695C2
:1031E000E9CF90935D02AACF27E245EE65EE0CC5CC
:1031F00026E241EE60EE08C527E245EE64EE04C526
:1032000026E241EE62EE00C528E241E0EFCF809178
:103210003D02806196E0E9169CE5F90609F4A2C03A
:1032200080913D028860E7E0EE16ECE5FE0608F4CA
:1032300099C080913D02806295C080913D028D7F52
:10324000FCE0EF16FCE5FF0609F48CC078F48091F1
:103250003D028C603AE0E3163CE5F30609F482C0D7
:1032600008F493C080913D028E7F7CC080913D0226
:10327000877F9EE0E9169CE5F90609F473C080910A
:103280003D028B7FEFE0EE16ECE5FE0608F46AC027
:1032900080913D028F7E66C0FBEFEF16FCE5FF06D6
:1032A00009F46BC068F533E1E3163CE5F30609F475
:1032B0007AC090F491E1E9169CE5F90609F46FC033
:1032C000E2E1EE16ECE5FE0609F067C40E94DA13AF
:1032D00080913D028F7746C0F5E1EF16FCE5FF06D1
:1032E00009F469C008F47DC080913E0281603AEF24
:1032F000E3163CE5F30609F050C480933E024DC44A
:103300008FEFE8168CE5F80609F451C0A0F480911F
:103310003E028D7FEDEFEE16ECE5FE0671F3809137
:103320003E028E7FFEEFEF16FCE5FF0630F3809144
:103330003E028360E2CF21E0E2162DE5F20609F4B9
:1033400059C008F444C060E082E0E8168DE5F80654
:1033500009F023C48EE090E00E94AE281EC4809144
:103360003D02816080933D0218C480913D028260DD
:10337000F9CF80913D028460F5CF80913E0282605A
:10338000BCCF80913D028064EDCF0E94DA13809122
:103390003D028068E7CF80913D028F7DE3CF809131
:1033A0003D028F7BDFCF80913D02837FDBCF809119
:1033B0003E028C7FA2CF80913D0282FB992790F93B
:1033C00021E0922790FB82F990FB83F9CBCF80918B
:1033D0003E02982F909591708E7F892B90FB81F9FA
:1033E0008CCF0E94DA1390913D02892F97FB87F9C9
:1033F0008058B8CF61E0AECF80913102E6E1EE16A1
:10340000ECE5FE0609F015C48A7A91E009F490E033
:103410009093E001811106C089E20E9438050E9464
:10342000C80466CD85E3F9CF85E327C480916002A7
:1034300080FF1BC08E7F809360026091600270915C
:10344000610280916202909163020E94C512109203
:103450005F02FFEF20E732E0F15020403040E1F71B
:1034600000C000000E94690E43CD8160809360021D
:1034700061E086950E94B6163BCD48EF56E161E0CB
:1034800077E10E948A0634CD41E057E168EF76E1AA
:10349000F8CF47E953E160EA73E1F3CF40EA53E143
:1034A00067E973E1EECF4FE753E16BE873E1E9CFF2
:1034B0004BE853E16FE773E1E4CF47E653E163E79D
:1034C00073E1DFCF43E753E167E673E1DACF49EA1F
:1034D00053E16AEB73E1D5CF4AEB53E169EA73E15B
:1034E000D0CF61E081E0C6CF65E082E00E940B179B
:1034F000FFCC68E086E0FACF6EE089E0F7CF64E1C8
:103500008FE0F4CF67E185E1F1CF61E088E1B2CFF0
:1035100062E289E1EBCF61E083E2ACCFE1148CE5BC
:10352000F80609F447C0EEEDEE16ECE5FE0609F4E8
:103530004EC0F801E080F180992309F44BC0C70127
:103540000E949B0BD82E682FC7010E949505B701DA
:103550008D2D0E94110A7C01882EF801D280A58051
:10356000A2943FE0A32280912E028770A1F0CD2C7F
:10357000DD2091F08F2D807F803421F080E28E0D50
:10358000883048F082E00E94C10780912E02877047
:10359000CC24C3948111C12C3F2C32942FE03222D1
:1035A000FBE0F31508F452C0E32DF0E0E15AF64DCC
:1035B0000C9415280E94DA13FFEF24E33CE0F1504D
:1035C00020403040E1F700C000000E940F0D0E9433
:1035D0003D128ECCC7010E946C05D82EB8CF2F2D7E
:1035E0002F70A22E8F2D807F19F0A29490EFA92228
:1035F000DD20C9F0AA2069F080E28E0D883010F03D
:1036000081100BC080913102A82AA09231020E9441
:10361000C8048E2D0E94330D19C080913002A82A53
:10362000A0923002F4CF8E2D0E947D08AA2071F066
:10363000A09480E28E0D883010F081103DC0809102
:103640003102A822A09231020E94C804232D2850E2
:10365000330B2430310510F40E940E06CC2009F4FF
:103660000ACC80912E0280FD06CCF801128285954D
:10367000859585950E94D907C8010E9419178091E8
:103680002E028595859585950F900F900F900F9040
:103690000F90DF91CF911F910F91FF90EF90DF90EE
:1036A000CF90BF90AF909F908F907F906F905F90E2
:1036B0004F903F900C949E0780913002A822A092D8
:1036C0003002C2CF3F2D3F70932E8F2D807F8032EE
:1036D00019F0929480EF9822882071F081E088168A
:1036E00061F1DD20B9F1AA2071F1F801858180FF37
:1036F00090CF8F70858327C0DD2091F090913202AA
:10370000892D892BA11003C00E94D8059FCFE1E02D
:10371000AE12FACF981709F499CF8093320296CF60
:10372000A11006C00E94C204892D0E94CD058ECF33
:10373000F1E0AF1609F48ACFF5CFDD2031F025E0B6
:103740002A1508F483CF892DDFCF34E03A1508F429
:103750007DCFEACFAA2041F3F9E38F1209C02FEF02
:1037600037EE83E0215030408040E1F700C0000098
:103770008E2D0E947D086ACF8F2D86958695837049
:1037800061F0813009F062CFC7019370D11002C09F
:1037900090E080E00E94E20559CFC7019370D110FC
:1037A00002C090E080E00E94F80550CF8E2DDD2011
:1037B00029F00E941C090E94340748CF0E94040887
:1037C000FACF8F2D837009F066C0D1103FCF8E2DB8
:1037D000829586958770880F880F6E2D6F70462EA4
:1037E000512C712C612C082E04C0440C551C661CF5
:1037F000771C0A94D2F740E050E0BA01E4FE0FC013
:103800004FE050E060E070E004C0440F551F661FB9
:10381000771F8A95D2F740955095609570958F2DBA
:10382000869586958370823019F1D8F480903302A2
:1038300090903402A0903502B0903602813069F049
:103840004429552966297729CB01BA0168217921B4
:103850008A219B210E94FA07F9CE482859286A2814
:103860007B28CB01BA016429752986299729F2CFD3
:103870004429552966297729409033025090340213
:103880006090350270903602CB01BA01642575252F
:1038900086259725DFCF8695DD2011F08F2D81704D
:1038A000882309F4D3CE8E2D829586958770880F54
:1038B000880F6E2D6F70462E512C712C612C082EA6
:1038C00004C0440C551C661C771C0A94D2F740E0D7
:1038D00050E0BA01E4FE0FC04FE050E060E070E05D
:1038E00004C0440F551F661F771F8A95D2F7409575
:1038F0005095609570958F2D869586958370823052
:1039000019F1D8F48090A1029090A202A090A30295
:10391000B090A402813069F044295529662977299D
:10392000CB01BA01682179218A219B210E94780765
:103930008DCE482859286A287B28CB01BA016429F2
:10394000752986299729F2CF44295529662977298F
:103950004090A1025090A2026090A3027090A40235
:10396000CB01BA016425752586259725DFCF9F2DCC
:103970009F70F92EDD2029F0892F0E94D9078E2D06
:10398000C3CE8E2D0E94CD058F2D0E949E075ECE48
:103990008E2DE2EF8E1609F453C0E81578F0F0EFA3
:1039A0008F1629F121EF821609F442C0DD2009F4B7
:1039B0006BC0A1102ECE8F2D8F713FC033EF8316B9
:1039C00009F443C094EF8912F1CFDD2009F451C00E
:1039D0002F2D2F71F22E822F0E94D90738E0F39EEF
:1039E000C0011124836080932E028F2D26C0DD201C
:1039F000D1F0E4E0EA1508F429CE2F2D2F7161E013
:103A000070E080E090E004C0660F771F881F991F68
:103A10002A95D2F74090A1025090A2026090A30292
:103A20007090A4029FCFF5E0FA1508F40FCEE5CF11
:103A30008F2D8F71DD2009F4A8CF0E94D90706CE03
:103A40008F2D8F71DD20C9F3A0CF60E070E0CB0136
:103A5000DD2009F46BCF2F2D2F7161E070E080E045
:103A600090E004C0660F771F881F991F2A95D2F730
:103A70005DCF81E00E94C10781E08A1508F0E6CDA4
:103A800082E00E94C107E2CDAA2059F0893309F0F3
:103A90006FCE9FEFE7EEF3E09150E040F040E1F7AA
:103AA00065CE8F2D8F7171CFF0E1EF16FFE5FF0628
:103AB00009F417CB21E1E2162FE5F20609F41BCB3E
:103AC0008DEBE8168CE5F80609F443CB08F017CB2C
:103AD000FBEBEF16FCE5FF0609F433CB80E02CEBA3
:103AE000E2162CE5F20609F42DCBE3EFEE16ECE539
:103AF000FE0609F47DCB08F0C3C028EDE2162CE5E4
:103B0000F20609F471CB39EDE3163CE5F30609F44E
:103B10007BCB87EDE8168CE5F80609F472C01092AD
:103B2000A002F2E0EF16FCE5FF0608F465CC26E102
:103B3000E2162CE5F20638F097012A5F3C45293061
:103B4000310508F059CC0E94D00990933E02809331
:103B50003D0230E1E3163CE5F30609F41CCC08F025
:103B60009BCB98E0E9169CE5F90609F40ACC08F02D
:103B700064CBF4E0EF16FCE5FF0609F4FACB08F09D
:103B800046CB32E0E3163CE5F30609F4E8CB83E0EC
:103B9000E8168CE5F80609F4E8CB60913D02F09058
:103BA0003E0284E090E00E94AE286F2D81E290E01A
:103BB0000E94AE280E94DA139BC930E1E3163FE56C
:103BC000F30609F494CA81E1E8168FE5F80609F4D2
:103BD00094CA23EFE2162CE5F20609F409CBA8F506
:103BE00088EDE8168CE5F80609F4FECAE9EDEE1654
:103BF000ECE5FE0609F408CBF7EDEF16FCE5FF0651
:103C000089F526E241EE61EEC8010E94050E70C9F9
:103C100085E0DE01119601900D928A95E1F7F80199
:103C2000228189819A8121113DC90E946C05F82E5B
:103C300041C98272F701E25CFC45E431F10508F00C
:103C40006DCCE559F64D0C94152825EFE2162CE5C0
:103C5000F20609F4D5CA08F4CFCA86EFE8168CE557
:103C6000F806E1F0F6E1EF16FCE5FF0609F061CC9D
:103C70008091E0018111D8CB89E20E940D05CFCB64
:103C8000E5EFEE16ECE5FE0609F4BACA08F4B4CA8C
:103C900026EFE2162CE5F20609F041CF27E245EEC9
:103CA00066EEB2CF1F93CF93DF938091E701807FC1
:103CB000A9F48091E401882389F080911902D091C0
:103CC000E8016091E2017091E301A091E501B091FA
:103CD000E601C62FC72316E0D81304C0DF91CF91A9
:103CE0001F91089590E0109711F0CF3F19F40196BD
:103CF0008770F2CF189F9001199F300D1124F901A0
:103D0000E751FE4F41814713F2CF40814613EFCF79
:103D100042814111ECCF438154814A1B5B0B483CEB
:103D2000510528F78091E7018F7080618093E7014A
:103D3000F901E251FE4F80818F708061808382EEB5
:103D400091E00E941917DF91CF911F910C94C30548
:103D5000AF92BF92CF92DF92EF92FF920F931F9399
:103D6000CF93DF93CDB7DEB761970FB6F894DEBF80
:103D70000FBECDBF8C0185E0F801DE011D960190DC
:103D80000D928A95E1F7F80180819181E28022EE1F
:103D9000A22E21E0B22E6091E5017091E60161153D
:103DA000710509F43EC13091E2014091E301232FF6
:103DB00024232F3F09F435C1C380D480F090E4015F
:103DC000F601E61BF70BFF2009F4FBC02091E70189
:103DD000522F507FE83CF10508F0BBC0511178C06C
:103DE000FE2C491321C038131FC0E1101DC02F70D5
:103DF00020612093E701C5010E9419178091E70116
:103E0000F80185838F2D61960FB6F894DEBF0FBE43
:103E1000CDBFDF91CF911F910F91FF90EF90DF9079
:103E2000CF90BF90AF900895CD2829F0282F292357
:103E30002F3F09F014C120E0F22FF170DF2E20FF98
:103E40003DC0209119024091E80156E0241315C0AD
:103E50008D879E878D859E850E94DD0B292F22955B
:103E60002F702230F8F0243020F59F70F9F0F8011F
:103E70009581907FD9F4D12C1FC030E0529FF00182
:103E8000539FF00D1124E751FE4F6181961306C038
:103E90006081861303C06281E61210C02F5F3F4F1E
:103EA0002770D4CF9F7011F0882329F3805E88306B
:103EB00010F3C8010E941917FD2CA4CFEE2009F4BD
:103EC000A1CF8091E70181608093E701F12C9ACF27
:103ED000491312C0381310C0E1100EC0F801258339
:103EE000C8010E94191786E0F801A2EEB1E0019026
:103EF0000D928A95E1F786CF8D879E878D859E8569
:103F00000E94E70B882309F1EE20F9F08091E70188
:103F1000803270F02091E2013091E30138872F83E5
:103F20001986DB86CA868C87CE0107960E941917F0
:103F300086E0F801A2EEB1E001900D928A95E1F7DA
:103F40000E94521EFF24F3945DCFC8010E941917EE
:103F5000F9CF51110AC082EE91E00E94191786E054
:103F6000F50111928A95E9F7B1CF49130FC03813C3
:103F70000DC0E1100BC0F8012583C8010E9419177C
:103F800086E0F50111928A95E9F73CCF8D879E87EF
:103F90008D859E850E94E70B8823B9F2EE20A9F259
:103FA0008091E701803220F22091E2013091E3011B
:103FB0003A8329831B82DD82CC828E83CE010196D7
:103FC000B5CFE83CF105E0F6FE2CEE2009F4BDCFBC
:103FD000491316C0381314C08091E70180FD83CFC8
:103FE000982F907F09F47FCFF8018583903F09F4E3
:103FF00077CF982F907F905F8F70892B858370CFBC
:104000008D879E878D859E850E94E70B811190CFBD
:104010008091E70181608093E701C8010E94191730
:10402000F1CEEE2009F491CF8D879E878D859E85F8
:104030000E94E70BF82E882309F487CF86E0F80169
:10404000A2EEB1E001900D928A95E1F78091E20134
:104050009091E3010E94DD0B0E94521ED3CE21E01D
:104060002E25EACE1F93CF93DF93CDB7DEB76797A8
:104070000FB6F894DEBF0FBECDBF342F4B8B252F6C
:104080005C8B6D8B7E8B8F8B8E899F8961111092DB
:1040900030021A8A198A3D872E876F87998B888B01
:1040A00086E0FE013D96DE01179601900D928A95FD
:1040B000E1F7CE0107960E94A81E882389F016E03A
:1040C000809119029091E801891349C067960FB653
:1040D000F894DEBF0FBECDBFDF91CF911F91089541
:1040E00086E0FE013796DE01119601900D928A95C9
:1040F000E1F78A859B85892B11F38F819885892328
:104100008F3FE9F22091E80130E0C9010196877004
:104110009927409119024817190671F40E94DA1381
:104120001092E8011092190286E0E2EEF1E0DF0160
:104130001D928A95E9F7C3CF96E0929FD001939F95
:10414000B00D1124A751BE4FFE01319601900D9282
:104150009A95E1F78093E8010E94C305B0CF819F53
:10416000C001112487519E4F0E94A81E882309F484
:10417000ADCF8091190290E00196877099278093C6
:1041800019029ECF1F920F920FB60F9211242F93F8
:104190003F934F935F936F937F938F939F93AF93CF
:1041A000BF93CF93DF93EF93FF93D091E900DF703C
:1041B0008091EC00C82FC17080FDC0E81092E9002A
:1041C0008091F000877F8093F00078940E94EF1335
:1041D0001092E9008091F00088608093F000CD2B70
:1041E000CF70C093E900FF91EF91DF91CF91BF9124
:1041F000AF919F918F917F916F915F914F913F917F
:104200002F910F900FBE0F901F9018951F920F9235
:104210000FB60F9211242F933F934F935F936F9399
:104220007F938F939F93AF93BF93EF93FF9380916F
:10423000E10082FF09C08091E20082FF05C0809109
:10424000E1008B7F8093E1008091DA0080FF24C041
:104250008091D80080FF20C08091DA008E7F80930B
:10426000DA008091D90080FF9BC080E189BD82E1A6
:1042700089BD09B400FEFDCF81E080939402809156
:104280006F02811109C00E9417030E94E20380910E
:10429000E20084608093E2008091E10080FF17C01B
:1042A0008091E20080FF13C08091E2008E7F8093B6
:1042B000E2008091E20080618093E2008091D8006A
:1042C00080628093D80019BC85E08093940280912D
:1042D000E10084FF29C08091E20084FF25C080E1D5
:1042E00089BD82E189BD89B5982F917080FFFBCF90
:1042F0008091D8008F7D8093D8008091E1008F7EDF
:104300008093E1008091E2008F7E8093E2008091B3
:10431000E20081608093E20080919502882309F495
:1043200045C084E0809394028091E10083FF27C020
:104330008091E20083FF23C08091E100877F80931A
:10434000E10082E080939402109295028091E10056
:104350008E7F8093E1008091E2008E7F8093E20067
:104360008091E20080618093E20042E060E080E0C2
:104370000E94B0038091F00088608093F000FF916C
:10438000EF91BF91AF919F918F917F916F915F91CD
:104390004F913F912F910F900FBE0F901F90189546
:1043A00019BC1092940210926F0276CF8091E300B4
:1043B00087FD93E090939402B7CFCDB7DEB7AA976D
:1043C0000FB6F894DEBF0FBECDBF84B7877F84BF22
:1043D0000FB6F894A8958091600088618093600082
:1043E000109260000FBE80E890E00FB6F8948093C2
:1043F0006100909361000FBE85B7806885BF85B767
:10440000806885BF82EA94E090939501809394013F
:104410000E9417030E94E2038091E200846080936F
:10442000E2007894809194028823A1F01091E90031
:104430001F709091EC00892F817090FD80E8182BFF
:104440001092E9008091E80083FD0E94EF131F7035
:104450001093E90082E084BD93E095BD9AEF97BD8B
:1044600080936E0085E90E94760983E90E947609AF
:1044700082E90E94760981E90E94760980E90E941A
:10448000760984E90E94760986E90E94760987E91F
:104490000E94760984E30E94760985E30E947609EA
:1044A00086E60E947609E7E3F2E08DE392E0A5E676
:1044B000B2E011921D928E179F07D9F70E94CD107E
:1044C0008FE39CE90197F1F700C000000E94CD1036
:1044D0008091650280FF17C06FEF82E290E00E943A
:1044E000AE286FEF83E290E00E94AE286FEF84E287
:1044F00090E00E94AE286FEF7FEF90E080E00E9496
:10450000CC280E940F0D0E943212811102C00E941D
:104510003D12269A2E9882E28093800089E1809352
:1045200081008FEF9FEF90938700809386000E9419
:10453000A71282E290E00E949A28813209F0BAC460
:1045400083E290E00E949A28853009F0B3C484E2A7
:1045500090E00E949A28833109F0ACC40E94321284
:10456000811102C00E943D1282E090E00E949A28D0
:10457000809356020E94D00990933E0280933D02A0
:1045800083E090E00E949A28682F70E090E080E03D
:104590000E94FA070E94A71280913F02811133C046
:1045A0000E943212811104C00E943D120E94CB135E
:1045B00088E090E00E94A2286093600270936102FC
:1045C00080936202909363026E7F71F40E94CB131A
:1045D00088E090E00E94A2286093600270936102DC
:1045E00080936202909363020E948F0610925F0292
:1045F0008091600280FF04C060E086950E94B6163C
:1046000081E080933F0282E191E0909341028093A8
:10461000400298E1E92EF12C20E4C22E85E692E0DA
:1046200036E0D32ED80E8091940200E112E185305D
:1046300009F4ABC10E94CD10882359F08FB7F894CC
:1046400040916B0250916C0260916D0270916E020C
:104650008FBFE7E5F2E0A5E6B2E010E000E0302F22
:104660008D919191981709F4A1C1292F282790E0E5
:10467000BB24B394422F4B2109F493C199A33AA3CD
:104680008B2191E009F490E09BA30E94B604816025
:10469000782F9DA38CA349A15AA16BA18DA10E9443
:1046A0003220F801E95AFD4F8081B826B08280910E
:1046B0005F028823D1F180915E02E0916002E6956D
:1046C000E81BE0934502823009F087C1F0E0EE5F1D
:1046D000FA4FE4910E2F10E089EAA82E80E1B82E5F
:1046E00080914602882361F0109246020E94B6042F
:1046F0009093440280934302109248021092470222
:104700000E94B604E0914302F09144028E1B9F0B7D
:104710008F3F9F4750F4E00FF11FF0934402E09366
:10472000430283E492E0F501099586E0EFE4F2E0CC
:10473000DE01119601900D928A95E1F7B090510239
:10474000A090520210915302009154021092510213
:104750001092520210925302109254028B2D8A2909
:1047600009F448C080914D0290914E020E94A70426
:104770009C0190914C02992309F4C3C32333310562
:10478000C8F19F3F19F09F5F90934C02BB2059F0F6
:104790000E94FC089FEF1B140CF491E0899F802D70
:1047A000112480935102AA2059F00E94FC089FEF27
:1047B0001A140CF491E0899F802D112480935202E9
:1047C000309151023323B1F020915202222391F013
:1047D00045EB3403C0011124992309F46AC1909375
:1047E000510245EB240390011124332309F465C1E0
:1047F00030935202812F802B09F448C080914A02E5
:1048000090914B020E94A7049C0190914902992328
:1048100009F472C325363105C8F19F3F19F09F5F37
:1048200090934902112359F00E94DA089FEF111664
:104830000CF491E0899F802D112480935302002372
:1048400059F00E94DA089FEF10160CF491E0899F4E
:10485000802D112480935402309153023323B1F000
:1048600020915402222391F045EB3403C00111241E
:10487000992309F426C19093530245EB2403900138
:104880001124332309F421C1309354028091510241
:1048900090915202892B90915302892B909154024E
:1048A000892B11F00E94340786E0FE013196AFE4B7
:1048B000B2E001900D928A95E1F70E940E06909168
:1048C0005502891721F00E940E06809355028091AF
:1048D0009402843009F0A7CE83E08093E9008091B0
:1048E000E80082FFA0CE8091E80090E085FF06C03E
:1048F0000E943603882309F4ECC091E08091E8001F
:104900008B778093E800992309F48DCEE981E150FB
:10491000E33108F060C1F0E0E158F64D0C94152841
:1049200080919402843021F180E00E941A06109256
:1049300042020FB6F894A895E09260000FBEC092B4
:10494000600083B7817F846083BF83B7816083BF4A
:104950007894889583B78E7F83BF0FB6F894A89517
:1049600080916000886180936000109260000FBEAB
:1049700080919302882349F00E94CD10E5E6F2E091
:104980008191811181C2DE12FBCF8091940285302A
:1049900009F4C6CF0E94DA130E94A7120E940E06E5
:1049A00049CE9F5FBB0C953009F064CE0F5F1F4F5F
:1049B0000630110509F053CE8FEF8EA38FA318A6F2
:1049C0000E94B6048160782F9AA789A74EA15FA1A3
:1049D00068A58AA50E9432206ACE863059F4F0E09C
:1049E000E150FB4FE4910E2F10E0BDEBAB2EB0E198
:1049F000BB2E76CE893061F4E695F0E0E450FB4FB3
:104A0000E4910E2F10E0AEE9AA2EAEE0BA2E68CEE9
:104A10008F3061F4E695F0E0E750FB4FE4910E2F04
:104A200010E0F8ECAF2EFEE0BF2E5ACE853159F4DF
:104A3000F0E0EA50FB4FE4910E2F10E0ECE2AE2ED6
:104A4000EFE0BE2E4DCE08E210E05AE7A52E5FE063
:104A5000B52E883109F444CE833249F4E4EFF4E012
:104A60000591149170E5A72E70E1B72E39CE04EFB1
:104A700011E046E0A42E40E1B42E843209F430CE99
:104A800000ED17E031EAA32E34E0B32E853209F0B1
:104A900027CE8E2F63E00E94E127E92FF0E0EF5050
:104AA000FB4FE4910E2F10E063E8A62E61E1B62ED5
:104AB00017CE81E08093510294CE81E08093520220
:104AC00099CE81E080935302D8CE81E08093540246
:104AD000DDCE00E210E0CE0101965C018091E8009D
:104AE00085FD0AC08091E8008B778093E8000E94E2
:104AF0003603882399F301CF8091F100F50181936A
:104B00005F010150110951F7F8CE1A8289E08B83B9
:104B10002DC08A81823009F4E6C18330A9F081304A
:104B200009F059C02FB7F89460916B0270916C0234
:104B300080916D0290916E022FBF0E941B286B83A3
:104B40007C838D839E8312C0809165028B838091CC
:104B500066028C83809167028D83809168028E83C8
:104B6000809169028F8380916A0288878091940284
:104B7000843009F058CD1091E9001F709091EC003D
:104B8000892F817090FD80E8182B82E08093E900E6
:104B90008091E80080FF0DC050E040E060E270E0EE
:104BA000CE0101960E9467038091E8008E77809382
:104BB000E8001F701093E90036CD8A81823059F4E5
:104BC0006B817C818D819E810E941B2885E290E013
:104BD0000E94AE28CBCF8FEF8983C8CF4C816B81E9
:104BE0008A810E94DE099827892798279E838D83D2
:104BF000BDCFAD80BE80BA24AB24BA248A810B819C
:104C0000FAE00F9F800111242CE3829F000D111DFB
:104C100011248C8190E0880F991F080F191F6B2DAC
:104C2000C80186960E94AE286A2DC8018796D0CF0B
:104C30000E940B0C9BCF8A81893061F48B8143E009
:104C4000849FC00111246FEF70E00E94ED27862F32
:104C50000E9474068A818138C1F060F4803809F0BE
:104C600085CF20E04B8160916202809161020E94B9
:104C7000D7127CCF823859F1833809F077CF20E002
:104C8000409163026C818B81F2CF60E08B810E9446
:104C9000B6169B8180916002911111C08E7F809326
:104CA000600210925F028FEF90E7E2E08150904047
:104CB000E040E1F700C000000E94690E57CF81601C
:104CC0008093600260E086950E94B6164FCF8B817C
:104CD000809364024BCF8A81893059F08A30C1F0C9
:104CE000813821F1B8F4803809F040CF8091630217
:104CF0000ECF80915D02869586958695FFEF8F9FFA
:104D0000C001112463E070E00E94ED276B832ECF79
:104D10001B822CCF823891F0833809F027CF809105
:104D200061028B83809162028C8320CF809160022C
:104D300080FF02C08695EBCE80E0E9CE80916402D0
:104D4000E6CE80915D020E945F0C609160027091DE
:104D5000610280916202909163020E94C51206CFA7
:104D600080E18A8303CF82E08A838AEED0CE0A81F3
:104D70001B81102701271027CE0101965C018C8032
:104D8000FC01E80DF11D4F01C8018A5E9E4F8A1497
:104D90009B0409F4EBCE0A3EF2E01F0750F40E9498
:104DA0009A28F50184830F5F1F4FFFEFAF1ABF0AE8
:104DB000EBCFF5011482F7CF0A811B811027012761
:104DC0001027CE0101964C01AC80A00EB12EB11C73
:104DD000C8018A5E9E4F0A151B0509F4C7CE0A3E1C
:104DE000E2E01E0720F4F40164810E94AE28FFEF88
:104DF0008F1A9F0A0F5F1F4FEBCF0E94640CB6CE35
:104E000084E0AFCF0A811B81102701271027CE0134
:104E100001965C018C80FC01E80DF11D4F01C80179
:104E200086968A149B0409F4A1CE003F110550F424
:104E30000E949A28F50184830F5F1F4FFFEFAF1A7E
:104E4000BF0AEDCFF5011482F7CF0A811B8110272D
:104E500001271027CE0101964C01AC80A00EB12E87
:104E6000B11CC8018696A016B10609F47FCE003F9A
:104E7000110520F4F40164810E94AE28FFEF8F1A1F
:104E80009F0A0F5F1F4FEDCF09BD19BD09B400FE8A
:104E9000FDCF8091D8008F7D8093D8008091E00075
:104EA00082608093E0008091E00081FDFCCF0E9451
:104EB000DA136BCD60E085E290E00E94AE280E949C
:104EC0000B0C0E94640C61E282E290E00E94AE282A
:104ED00065E083E290E00E94AE2863E184E290E026
:104EE0000E94AE283BCB85E290E00E949A281B826C
:104EF0001C821D828E833ACE2D32314008F08FCC39
:104F0000C5CC2D32314008F03ECC74CC78941F9241
:104F10001FB61F9211248F939F93AF93BF938091DD
:104F20006B0290916C02A0916D02B0916E0201969D
:104F3000A11DB11D80936B0290936C02A0936D0232
:104F4000B0936E02BF91AF919F918F911F901FBE42
:104F50001F9018951F921FB61F9211248F939F9335
:104F6000AF93BF9380914202811113C080916B0275
:104F700090916C02A0916D02B0916E024196A11DBC
:104F8000B11D80936B0290936C02A0936D02B0935D
:104F90006E02BF91AF919F918F911F901FBE1F9086
:104FA0001895DB018F939F930E940129BF91AF91C8
:104FB000A29F800D911DA39F900DB29F900D112473
:104FC0000895991B79E004C0991F961708F0961B65
:104FD000881F7A95C9F780950895AA1BBB1B51E1DC
:104FE00007C0AA1FBB1FA617B70710F0A61BB70B59
:104FF000881F991F5A95A9F780959095BC01CD01FE
:10500000089597FB072E16F4009407D077FD09D07A
:105010000E94ED2707FC05D03EF4909581959F4FA7
:105020000895709561957F4F0895EE0FFF1F0590CD
:10503000F491E02D09946927962769277827872717
:10504000782708950E943629332312F48A1B9B0B7C
:105050000C942C280E943629B7FF0895821B930BCD
:1050600008958F929F92AF92BF92CF92DF92EF926C
:10507000FF92CF93DF93EC01688179818A819B81D4
:10508000611571058105910521F464E279ED8BE5E7
:1050900097E02DE133EF41E050E00E94E228490122
:1050A0005A019B01AC01A7EAB1E40E9401296B01FE
:1050B0007C01ACEEB4EFA50194010E940F29DC0144
:1050C000CB018C0D9D1DAE1DBF1DB7FF03C0019709
:1050D000A109B04888839983AA83BB839F77DF9116
:1050E000CF91FF90EF90DF90CF90BF90AF909F90C7
:1050F0008F9008950E943128089580E091E00E94E9
:1051000031280895B0E0A0E0809300019093010160
:10511000A0930201B09303010895FC014150504057
:1051200030F001900616D1F73197CF010895882706
:1051300099270895F999FECF92BD81BDF89A9927D4
:1051400080B50895A6E1B0E044E050E00C94D42886
:10515000A8E1B0E042E050E00C94D428262FF99961
:10516000FECF92BD81BDF89A019700B4021639F0C6
:105170001FBA20BD0FB6F894FA9AF99A0FBE089597
:105180000396272F0E94AF280E94AE28252F0E9449
:10519000AF28242F0C94AF280196272F0E94AF2808
:1051A0000C94AE28DC01CB01FC01F999FECF06C0BE
:1051B000F2BDE1BDF89A319600B40D9241505040D5
:1051C000B8F70895052E97FB1EF400940E94F92865
:1051D00057FD07D00E94142907FC03D04EF40C940D
:1051E000F92850954095309521953F4F4F4F5F4F8F
:1051F000089590958095709561957F4F8F4F9F4F43
:1052000008950E943629A59F900DB49F900DA49FEC
:10521000800D911D11240895B7FF0C9401290E945F
:105220000129821B930B0895A1E21A2EAA1BBB1B16
:10523000FD010DC0AA1FBB1FEE1FFF1FA217B30762
:10524000E407F50720F0A21BB30BE40BF50B661F78
:10525000771F881F991F1A9469F76095709580953C
:1052600090959B01AC01BD01CF010895A29FB001B3
:10527000B39FC001A39F700D811D1124911DB29F8A
:10528000700D811D1124911D0895F894FFCFF60B28
:10529000F60BFF0BFF0B010CFF0BFF0BFF0BF60BCD
:1052A000F60B060CFF0BFF0B060CD414FC144F1569
:1052B000FC144F152F1567154F1564167116EF1A4C
:1052C000EF1A621B621BBC1BD61B261B261BE11B95
:1052D000B71CC81CC81C161A3D1A441A491A4E1A83
:1052E000531A581A5D1A621A671A6C1A711A741ACC
:1052F000791A7C1A7F1A821A851A881A8B1A8525C0
:105300008925DD25EE25F92518261B266B26A126E5
:10531000EB25EB25B026B326B726DC26FD26002795
:045320000227252714
:105324000100000001191A1B1C1D1E1F202122014F
:105334000201A404CF0CAE0CAA0CA60C01000102BD
:105344000202020606060909090909090F0F0F0FCF
:105354000F0F1515151819191919191919191919DA
:105364002324252525252525818283E200E900EAD9
:1053740000B500B600B700CD008301CC008A0192CD
:105384000194012102230224022502260227022A73
:1053940002B300B4006F00700095939291909496BC
:1053A400973435664022B684016201AC0018053199
:0453B400055105009A
:00000001FF
